{
  "contractName": "HelloWorld",
  "abi": [
    {
      "inputs": [],
      "stateMutability": "nonpayable",
      "type": "constructor"
    },
    {
      "inputs": [],
      "name": "yourName",
      "outputs": [
        {
          "internalType": "string",
          "name": "",
          "type": "string"
        }
      ],
      "stateMutability": "view",
      "type": "function"
    },
    {
      "inputs": [
        {
          "internalType": "string",
          "name": "name",
          "type": "string"
        }
      ],
      "name": "setName",
      "outputs": [],
      "stateMutability": "nonpayable",
      "type": "function"
    }
  ],
  "bytecode": "0x608060405234801561001057600080fd5b506040805180820190915260078082527f556e6b6e6f776e0000000000000000000000000000000000000000000000000060209092019182526100559160009161005b565b50610148565b828054610067906100f4565b90600052602060002090601f01602090048101928261008957600085556100cf565b82601f106100a257805160ff19168380011785556100cf565b828001600101855582156100cf579182015b828111156100cf5782518255916020019190600101906100b4565b506100db9291506100df565b5090565b5b808211156100db57600081556001016100e0565b60028104600182168061010857607f821691505b60208210811415610142577f4e487b7100000000000000000000000000000000000000000000000000000000600052602260045260246000fd5b50919050565b610387806101576000396000f3fe608060405234801561001057600080fd5b5060043610610052577c01000000000000000000000000000000000000000000000000000000006000350463c47f00278114610057578063d97d66301461006c575b600080fd5b61006a6100653660046101f7565b61008a565b005b6100746100a1565b60405161008191906102a8565b60405180910390f35b805161009d90600090602084019061012f565b5050565b600080546100ae906102fd565b80601f01602080910402602001604051908101604052809291908181526020018280546100da906102fd565b80156101275780601f106100fc57610100808354040283529160200191610127565b820191906000526020600020905b81548152906001019060200180831161010a57829003601f168201915b505050505081565b82805461013b906102fd565b90600052602060002090601f01602090048101928261015d57600085556101a3565b82601f1061017657805160ff19168380011785556101a3565b828001600101855582156101a3579182015b828111156101a3578251825591602001919060010190610188565b506101af9291506101b3565b5090565b5b808211156101af57600081556001016101b4565b7f4e487b7100000000000000000000000000000000000000000000000000000000600052604160045260246000fd5b60006020828403121561020957600080fd5b813567ffffffffffffffff8082111561022157600080fd5b818401915084601f83011261023557600080fd5b813581811115610247576102476101c8565b604051601f8201601f19908116603f0116810190838211818310171561026f5761026f6101c8565b8160405282815287602084870101111561028857600080fd5b826020860160208301376000928101602001929092525095945050505050565b600060208083528351808285015260005b818110156102d5578581018301518582016040015282016102b9565b818111156102e7576000604083870101525b50601f01601f1916929092016040019392505050565b60028104600182168061031157607f821691505b6020821081141561034b577f4e487b7100000000000000000000000000000000000000000000000000000000600052602260045260246000fd5b5091905056fea26469706673582212208e74da419c56c27e82730354342dd9014b331b515baabd2f2d5d074cfc6e99a064736f6c634300080a0033",
  "immutableReferences": {},
  "source": "pragma solidity >=0.4.22 <0.9.0;\r\n\r\ncontract HelloWorld {\r\n    string public yourName;\r\n\r\n    constructor() public {\r\n        yourName = \"Unknown\";\r\n    }\r\n\r\n    function setName(string memory name) public {\r\n        yourName = name;\r\n    }\r\n}\r\n",
  "sourcePath": "E:\\Applications\\Flutter\\dapp_hello_world\\contracts\\HelloWorld.sol",
  "compiler": {
    "name": "solc",
    "version": "0.8.10+commit.fc410830.Emscripten.clang"
  },
  "schemaVersion": "3.4.3",
  "updatedAt": "2021-12-09T20:11:48.160Z",
  "devdoc": {
    "kind": "dev",
    "methods": {},
    "version": 1
  },
  "userdoc": {
    "kind": "user",
    "methods": {},
    "version": 1
  }
}